S01700004F6E654D6F6E74684578616D706C652E7372656319
S1130000FDC000001FC100001DC100001BC1000095
S113001019C1000017C1000015C1000013C1000080
S113002011C100000FC100000DC100000BC1000090
S113003009C1000007C1000005C1000003C10000A0
S113004001C10000FFC00000FDC00000FBC00000B3
S1130050F9C00000F7C00000F5C00000F3C00000C4
S1130060F1C00000EFC00000EDC00000EBC00000D4
S1130070E9C00000E7C00000E5C00000E3C00000E4
S1130080E1C00000DFC00000DDC00000DBC00000F4
S1130090D9C00000D7C00000D5C00000C8C100000E
S11300A003C200003EC2000079C20000CBC00000C1
S11300B0C9C00000C7C00000C5C00000C3C0000024
S11300C0C1C00000BFC00000BDC00000BBC0000034
S11300D0B9C00000B7C00000B5C00000B3C0000044
S11300E0B1C00000AFC00000ADC00000ABC0000054
S11300F0A9C00000A7C00000A5C00000A3C0000064
S1130100A1C000009FC000009DC000009BC0000073
S113011099C0000097C0000095C0000094C0000082
S1130120CFC000000AC1000045C100008BC0000020
S113013089C0000087C0000085C0000083C00000A3
S113014081C000007FC000007DC000007BC00000B3
S113015079C0000077C0000075C0000073C00000C3
S113016071C000006FC000006DC000006BC00000D3
S113017069C0000067C0000065C0000063C00000E3
S113018061C000005FC000005DC000005BC00000F3
S113019059C0000057C0000055C0000053C0000003
S11301A051C000004FC000004DC000004BC0000013
S11301B049C0000047C0000045C0000043C0000023
S11301C041C000003FC000003DC000003BC0000033
S11301D039C0000037C0000035C0000033C0000043
S11301E031C000002FC000002DC000002BC0000053
S11301F029C0000027C0000025C0000011241FBE34
S1130200CFEFCDBFDFE3DEBF00E00CBF18BE19BEE9
S11302101ABE1BBE10E2A0E0B0E2E8E8F1E100E0A3
S11302200BBF02C007900D92A030B107D9F71BBED7
S113023020E2A0E0B0E201C01D92A432B207E1F7CF
S1130240F9D4A0C7DDCE1F920F920FB60F921124DE
S113025008B60F9218BE09B60F9219BE0BB60F92CC
S11302601BBE2F933F934F935F936F937F938F9313
S11302709F93AF93BF93EF93FF93409124025091C8
S11302802502E0910220F091032061E080E092E0F9
S11302901995FF91EF91BF91AF919F918F917F91AC
S11302A06F915F914F913F912F910F900BBE0F90E3
S11302B009BE0F9008BE0F900FBE0F901F901895A7
S11302C01F920F920FB60F92112408B60F9218BE08
S11302D009B60F9219BE0BB60F921BBE2F933F9314
S11302E04F935F936F937F938F939F93AF93BF933A
S11302F0EF93FF9340912C0250912D02E091022044
S1130300F091032062E080E092E01995FF91EF9173
S1130310BF91AF919F918F917F916F915F914F9119
S11303203F912F910F900BBE0F9009BE0F9008BE06
S11303300F900FBE0F901F9018951F920F920FB63B
S11303400F92112408B60F9218BE09B60F9219BE67
S11303500BB60F921BBE2F933F934F935F936F93F4
S11303607F938F939F93AF93BF93EF93FF934091AA
S1130370340250913502E0910220F091032064E0B0
S113038080E092E01995FF91EF91BF91AF919F9119
S11303908F917F916F915F914F913F912F910F902A
S11303A00BBE0F9009BE0F9008BE0F900FBE0F90AA
S11303B01F9018951F920F920FB60F92112408B632
S11303C00F9218BE09B60F9219BE0BB60F921BBE40
S11303D02F933F934F935F936F937F938F939F9349
S11303E0AF93BF93EF93FF9340913C0250913D0232
S11303F0E0910220F091032068E080E092E01995FA
S1130400FF91EF91BF91AF919F918F917F916F91E8
S11304105F914F913F912F910F900BBE0F9009BEAA
S11304200F9008BE0F900FBE0F901F9018951F924B
S11304300F920FB60F92112408B60F9218BE09B688
S11304400F9219BE0BB60F921BBE2F933F934F937F
S11304505F936F937F938F939F93AF93BF93EF9328
S1130460FF934091640250916502E0910020F09165
S1130470012061E080E492E01995FF91EF91BF9132
S1130480AF919F918F917F916F915F914F913F9128
S11304902F910F900BBE0F9009BE0F9008BE0F90C6
S11304A00FBE0F901F9018951F920F920FB60F92C8
S11304B0112408B60F9218BE09B60F9219BE0BB6D6
S11304C00F921BBE2F933F934F935F936F937F9332
S11304D08F939F93AF93BF93EF93FF9340916C02DD
S11304E050916D02E0910020F091012062E080E4DF
S11304F092E01995FF91EF91BF91AF919F918F91E8
S11305007F916F915F914F913F912F910F900BBE0F
S11305100F9009BE0F9008BE0F900FBE0F901F9052
S113052018951F920F920FB60F92112408B60F92CE
S113053018BE09B60F9219BE0BB60F921BBE2F93AD
S11305403F934F935F936F937F938F939F93AF9357
S1130550BF93EF93FF934091740250917502E09121
S11305600020F091012064E080E492E01995FF916D
S1130570EF91BF91AF919F918F917F916F915F9117
S11305804F913F912F910F900BBE0F9009BE0F908A
S113059008BE0F900FBE0F901F9018951F920F92D8
S11305A00FB60F92112408B60F9218BE09B60F9217
S11305B019BE0BB60F921BBE2F933F934F935F93BD
S11305C06F937F938F939F93AF93BF93EF93FF9317
S11305D040917C0250917D02E0910020F091012035
S11305E068E080E492E01995FF91EF91BF91AF919B
S11305F09F918F917F916F915F914F913F912F9137
S11306000F900BBE0F9009BE0F9008BE0F900FBE47
S11306100F901F9018954091CA01E62FF72F8093F1
S1130620CA0184914093CA01089504C061507109BC
S1130630810991096115710581059105B9F708953D
S1130640E0E4F6E080EB818390E49283858383E5A4
S11306508093C00808958093C308E0ECF8E0828199
S11306608823ECF708958FEFF6DF8091C30808958F
S1130670FF920F931F93CF93DF9300E416E06894E7
S1130680FF24F4F8F801F682E6DFEDDFC82FD0E0AE
S1130690DC2FCC27E8DFC80FD11DF801F58266ED09
S11306A074E180E090E0C1DFCE01DF91CF911F9132
S11306B00F91FF9008951F93CF93DF93C0E4D6E08A
S11306C010E11E838EE1C7DF1D8382EAD1DF8093B0
S11306D004209093052084EACBDF80930820909334
S11306E0092086EAC5DF809306209093072088EAD4
S11306F0BFDF80930E2090930F208AEAB9DF8093A6
S11307000C2090930D208CEAB3DF80930A20909301
S11307100B20DF91CF911F9108958F929F92AF92FA
S1130720BF92CF92DF92EF92FF921F93CF93DF930A
S1130730C0E4D6E010E11E838EDF1D8361E87BEB0D
S113074080E090E072DF1E8380E085DF8CDFC82EBE
S1130750D12CE12CF12C56019924882484DFC82E55
S1130760D12CE12CF12CFE2CED2CDC2CCC24C80C4F
S1130770D91CEA1CFB1C77DF1D83A7019601280FF7
S1130780311D411D511DCA01B901DF91CF911F9146
S1130790FF90EF90DF90CF90BF90AF909F908F909D
S11307A0089588E4BADF88E5B8DF50E040E030E03F
S11307B020E0652F742F832F922F08958FEF80935D
S11307C08006E0E0FAE087E0808383EF8183089588
S11307D0CF93C42F9B01AC0160E074E284EF9BE4EF
S11307E033D320E030E040E853E455D420E030E057
S11307F040E85FE3C4D290D3E0E0FAE066A377A3D5
S113080026A137A186A197A16C2F70E0A7D4261B3F
S1130810370B20A731A7CF910895E0E4F6E088E0F4
S1130820818385830895CF93DF931F921F92CDB761
S1130830DEB78FEF80937000809371008093720015
S11308408093730080937400809375008093760086
S11308508FB78A83F8949A81E0E5F0E08081826022
S113086080839FBF818181FFFDCF61E080E490E0C0
S113087025D08FB78983F8949981E0E5F0E08081F1
S11308808E7F80839FBF0F900F90DF91CF9108954B
S1130890CF93DF931F92CDB7DEB79FB79983F894B8
S11308A09981E82FF0E0E059FF4F6095808168233B
S11308B060839FBF0F90DF91CF9108951BBEFC0111
S11308C028ED24BF60830895FF920F931F93CF9365
S11308D0DF93FF24F394F0920206C0E0D2E0F882A2
S11308E0198280E18A8385E08C8361E270E082E092
S11308F092DE082F10E0102F002760E270E082E003
S11309008ADE082B0C871D87F8A219A2DF91CF91EC
S11309101F910F91FF900895E0E0F2E080A18068BC
S113092080A383A18823E9F3E0E0F2E013A264A1A9
S113093075A180E090E021D328E533E740E05AE355
S1130940AAD322E538EB4EE95DE319D220E030E08A
S11309504AE754E4A0D3E5D2CB010895DDDF80E07B
S11309600895009709F435C1803C910521F460E1B4
S113097080E08ECF0895803424E0920721F468E06B
S113098080E086CF0895811524E0920721F464E085
S113099080E07ECF0895803821E0920721F462E060
S11309A080E076CF0895811521E0920721F461E07B
S11309B080E06ECF0895803823E0920721F461E04F
S11309C081E066CF0895803923E0920721F461E045
S11309D082E05ECF0895811522E0920721F462E05F
S11309E081E056CF0895803422E0920721F462E03A
S11309F082E04ECF0895811523E0920721F464E04C
S1130A0081E046CF0895803223E0920721F464E028
S1130A1082E03ECF0895811528E0920721F461E039
S1130A2083E036CF0895811529E0920721F461E02F
S1130A3084E02ECF089581152AE0920721F461E025
S1130A4085E026CF089581152BE0920721F461E01B
S1130A5086E01ECF0895803428E0920721F462E0F6
S1130A6083E016CF0895803429E0920721F462E0F0
S1130A7084E00ECF089580342AE0920721F462E0E6
S1130A8085E006CF089580342BE0920721F462E0DC
S1130A9086E0FECE0895803928E0920721F464E0D0
S1130AA083E0F6CE0895803929E0920721F464E0CA
S1130AB084E0EECE089580392AE0920721F464E0C0
S1130AC085E0E6CE089580392BE0920721F464E0B6
S1130AD086E0DECE0895803C28E0920721F468E0A9
S1130AE083E0D6CE0895803C29E0920721F468E0A3
S1130AF084E0CECE0895803C2AE0920721F468E099
S1130B0085E0C6CE0895803C2BE0920721F468E08E
S1130B1086E0BECE0895803A28E0920721F460E191
S1130B2083E0B6CE0895803A29E0920721F460E18B
S1130B3084E0AECE0895803A2AE0920721F460E181
S1130B4085E0A6CE0895803A2BE0920721F460E177
S1130B5086E09ECE0895803B28E0920721F460E26F
S1130B6083E096CE0895803B29E0920721F460E269
S1130B7084E08ECE0895803B2AE0920721F460E25F
S1130B8085E086CE0895803B2BE0920721F460E255
S1130B9086E07ECE0895803824E0920721F460E454
S1130BA083E076CE0895803924E0920721F460E44E
S1130BB084E06ECE0895803A24E0920721F460E444
S1130BC085E066CE0895803B944019F460E486E0A5
S1130BD05FCE0895E6DD60931A2070931B20809306
S1130BE01C2090931D20BADE90E080931E209093E9
S1130BF01F200895D6DD60931A2070931B208093E4
S1130C001C2090931D20AADE90E080931E209093D8
S1130C101F200895C6DD60931A2070931B208093D3
S1130C201C2090931D209ADE90E080931E209093C8
S1130C301F200895F8DD80E09AE093DE64E085E00B
S1130C4027DEBCDD80EC98E08CDEFADC34DD80E06D
S1130C5092E087DE39DE80EA98E083DEDEDD7EDE48
S1130C6090E080931620909317209BDD60932020C2
S1130C707093212080932220909323201092182097
S1130C80109219208EE190E080931020909311200F
S1130C908CEB92E0809314209093152045E060E063
S1130CA070E080E09FE394DD2091122030911320C6
S1130CB080911020909111202817390760F48ADF61
S1130CC020911220309113208091102090911120B6
S1130CD028173907A0F34AE060E070E080EA90E466
S1130CE077DD809112209091132020911020309173
S1130CF0112028173907D0F42091142030911520A1
S1130D008217930798F476DF809112209091132034
S1130D1020911020309111202817390738F42091A0
S1130D201420309115208217930768F34AE060E09D
S1130D3070E080E291E44CDD4AE060E070E080E83D
S1130D409FE346DD809114209091152084569109EB
S1130D5020911220309113202817390708F09ECFD4
S1130D6059DF809114209091152084569109209187
S1130D701220309113202817390790F38FCF505841
S1130D80BB27AA270ED04DC13ED130F043D120F06D
S1130D9031F49F3F11F41EF433C10EF4E095E7FBE8
S1130DA029C1E92F4FD180F3BA176207730784076B
S1130DB0950718F071F49EF567C10EF4E0950B2EBB
S1130DC0BA2FA02D0B01B90190010C01CA01A00199
S1130DD01124FF27591B99F0593F50F4503E68F1F4
S1130DE01A16F040A22F232F342F4427585FF3CF35
S1130DF0469537952795A795F0405395C9F77EF406
S1130E001F16BA0B620B730B840BBAF09150A1F04E
S1130E10FF0FBB1F661F771F881FC2F70EC0BA0FD4
S1130E20621F731F841F48F4879577956795B7955C
S1130E30F7959E3F08F0B3CF9395880F08F0992754
S1130E40EE0F9795879508950CD0EBC0E3D040F052
S1130E50DAD030F021F45F3F19F0CCC0511115C144
S1130E60CFC0F0D098F39923C9F35523B1F3951B60
S1130E70550BBB27AA2762177307840738F09F5FB7
S1130E805F4F220F331F441FAA1FA9F333D00E2E26
S1130E903AF0E0E830D091505040E695001CCAF793
S1130EA029D0FE2F27D0660F771F881FBB1F261758
S1130EB037074807AB07B0E809F0BB0B802DBF012B
S1130EC0FF2793585F4F2AF09E3F510568F092C068
S1130ED0DCC05F3FECF3983EDCF38695779567952D
S1130EE0B795F7959F5FC9F7880F911D96958795DC
S1130EF097F90895E1E0660F771F881FBB1F6217FB
S1130F0073078407BA0720F0621B730B840BBA0BB8
S1130F10EE1F88F7E095089504D06894B111B5C028
S1130F20089598D088F09F5790F0B92F9927B7511A
S1130F30A0F0D1F0660F771F881F991F1AF0BA9599
S1130F40C9F712C0B13081F09FD0B1E008959CC0C0
S1130F50672F782F8827B85F39F0B93FCCF386958F
S1130F6077956795B395D9F73EF4909580957095EC
S1130F7061957F4F8F4F9F4F0895E89409C097FB69
S1130F803EF490958095709561957F4F8F4F9F4F5C
S1130F909923A9F0F92F96E9BB279395F6958795A0
S1130FA077956795B795F111F8CFFAF4BB0F11F463
S1130FB060FF1BC06F5F7F4F8F4F9F4F16C088230A
S1130FC011F096E911C0772321F09EE8872F762F40
S1130FD005C0662371F096E8862F70E060E02AF081
S1130FE09A95660F771F881FDAF7880F969587956D
S1130FF097F9089597F99F6780E870E060E0089595
S11310009FEF80EC089500240A941616170618061C
S11310100906089500240A941216130614060506F8
S11310200895092E0394000C11F4882352F0BB0F89
S113103040F4BF2B11F460FF04C06F5F7F4F8F4FEC
S11310409F4F089557FD9058440F551F59F05F3F27
S113105071F04795880F97FB991F61F09F3F79F0D6
S113106087950895121613061406551FF2CF469558
S1131070F1DF08C0161617061806991FF1CF8695DA
S11310807105610508940895E894BB2766277727BE
S1131090CB0197F908950BD0C4CFB5DF28F0BADFA0
S11310A018F0952309F0A6CFABCF1124EECFCADFF9
S11310B0A0F3959FD1F3950F50E0551F629FF00167
S11310C0729FBB27F00DB11D639FAA27F00DB11DC0
S11310D0AA1F649F6627B00DA11D661F829F222749
S11310E0B00DA11D621F739FB00DA11D621F839FD0
S11310F0A00D611D221F749F3327A00D611D231FA6
S1131100849F600D211D822F762F6A2F11249F57F3
S113111050408AF0E1F088234AF0EE0FFF1FBB1F16
S1131120661F771F881F91505040A9F79E3F5105B5
S113113070F060CFAACF5F3FECF3983EDCF3869566
S113114077956795B795F795E7959F5FC1F7FE2B60
S1131150880F911D9695879597F90895AA1BBB1B37
S113116051E107C0AA1FBB1FA617B70710F0A61BA3
S1131170B70B881F991F5A95A9F780959095BC01C4
S10B1180CD010895F894FFCF9E
S9030000FC
