S01800004743435F50726163746963655F3030312E73726563C5
S1130000F9C000001DC100001BC1000019C100009F
S113001017C1000015C1000013C1000011C1000088
S11300200FC100000DC1000091C30000B2C3000065
S113003007C1000005C1000030C4000066C4000010
S11300409CC40000D2C4000008C500003EC50000E6
S113005074C50000AAC50000E0C5000016C6000073
S1130060EFC00000EDC00000EBC00000E9C00000DC
S1130070E7C00000E5C00000E3C00000E1C00000EC
S1130080DFC00000DDC00000DBC00000D9C00000FC
S1130090D7C00000D5C00000D3C000003BC20000A0
S11300A076C20000B1C20000ECC20000C9C000006A
S11300B0C7C00000C5C00000C3C000000C94AD0858
S11300C00C94E5080C941D090C9455090C948D09A5
S11300D00C94C5090C94FD090C94350A0C946D0A12
S11300E00C94A50AADC00000ABC00000A9C000007C
S11300F0A7C00000A5C00000A3C00000A1C000006C
S11301009FC000009DC000009BC0000099C000007B
S113011097C0000095C0000093C0000007C1000014
S113012042C100007DC10000B8C1000089C00000C8
S113013087C00000E2C5000018C600004EC60000DB
S113014084C60000BAC60000F0C6000026C700003E
S11301505CC7000092C70000C8C7000071C000005F
S11301606FC000006DC000006BC0000069C00000DB
S113017067C0000065C0000063C0000061C00000EB
S11301805FC000005DC000005BC0000059C00000FB
S113019057C0000055C0000053C0000051C000000B
S11301A04FC000004DC000004BC0000049C000001B
S11301B00C94DD0A0C94150B0C944D0B0C94850BCC
S11301C00C94BD0B0C94F50B0C942D0C0C94650C39
S11301D00C949D0C0C94D50C33C0000031C000006D
S11301E02FC000002DC000002BC0000029C000005B
S11301F027C0000011241FBECFEFCDBFDFE3DEBF59
S113020000E00CBF18BE19BE1ABE1BBE10E2A0E06F
S1130210B0E2EEEAF4E200E00BBF02C007900D92F8
S1130220A830B107D9F71BBE20E2A8E0B0E201C0B4
S11302301D92AA36B207E1F70E94FC0D0C945512E8
S1130240DFCEAF92BF92CF92DF92EF92FF920F93E5
S11302501F93CF93DF93DC01CB01A12C0F2EF8E485
S1130260BF2EF02D0F2EF8EECF2EF02DDD24D394DB
S1130270E12CF12C00E010E0282F392F4A2F5B2FBE
S113028060E070E080E090E00E944E0F29513C4F06
S11302904F4F5F4F6F4F7F4F8F4F9F4F0E94AF0E57
S11302A020E030E84BEB55E40E940D0E0E947A0EDC
S11302B0E22F732F642F852F1E2F352F44E050E03B
S11302C021E0E0E8F6E0F12ED72FC62F082F822F89
S11302D080958483220F8F2D9D2FAC2FB02F0197F3
S11302E0A109B109E1F74150510989F744E050E00F
S11302F020E8C0E8D6E0E12F822F80958C832695F4
S11303008E2F972FA62FB32F0197A109B109E1F7DB
S11303104150510989F7DF91CF911F910F91FF90BF
S1130320EF90DF90CF90BF90AF9008951F920F92FF
S11303300FB60F92112408B60F9218BE09B60F9289
S113034019BE0BB60F921BBE2F933F934F935F932F
S11303506F937F938F939F93AF93BF93EF93FF9389
S11303604091240250912502E0915A20F0915B20A3
S113037061E080E092E01995FF91EF91BF91AF9118
S11303809F918F917F916F915F914F913F912F91A9
S11303900F900BBE0F9009BE0F9008BE0F900FBEBA
S11303A00F901F9018951F920F920FB60F92112461
S11303B008B60F9218BE09B60F9219BE0BB60F926B
S11303C01BBE2F933F934F935F936F937F938F93B2
S11303D09F93AF93BF93EF93FF9340912C0250915F
S11303E02D02E0915A20F0915B2062E080E092E0DF
S11303F01995FF91EF91BF91AF919F918F917F914B
S11304006F915F914F913F912F910F900BBE0F9081
S113041009BE0F9008BE0F900FBE0F901F90189545
S11304201F920F920FB60F92112408B60F9218BEA6
S113043009B60F9219BE0BB60F921BBE2F933F93B2
S11304404F935F936F937F938F939F93AF93BF93D8
S1130450EF93FF934091340250913502E0915A207A
S1130460F0915B2064E080E092E01995FF91EF91B8
S1130470BF91AF919F918F917F916F915F914F91B8
S11304803F912F910F900BBE0F9009BE0F9008BEA5
S11304900F900FBE0F901F9018951F920F920FB6DA
S11304A00F92112408B60F9218BE09B60F9219BE06
S11304B00BB60F921BBE2F933F934F935F936F9393
S11304C07F938F939F93AF93BF93EF93FF93409149
S11304D03C0250913D02E0915A20F0915B2068E08B
S11304E080E092E01995FF91EF91BF91AF919F91B8
S11304F08F917F916F915F914F913F912F910F90C9
S11305000BBE0F9009BE0F9008BE0F900FBE0F9048
S11305101F9018951F920F920FB60F92112408B6D0
S11305200F9218BE09B60F9219BE0BB60F921BBEDE
S11305302F933F934F935F936F937F938F939F93E7
S1130540AF93BF93EF93FF93409164025091650280
S1130550E0915820F091592061E080E492E01995EF
S1130560FF91EF91BF91AF919F918F917F916F9187
S11305705F914F913F912F910F900BBE0F9009BE49
S11305800F9008BE0F900FBE0F901F9018951F92EA
S11305900F920FB60F92112408B60F9218BE09B627
S11305A00F9219BE0BB60F921BBE2F933F934F931E
S11305B05F936F937F938F939F93AF93BF93EF93C7
S11305C0FF9340916C0250916D02E0915820F0919C
S11305D0592062E080E492E01995FF91EF91BF9178
S11305E0AF919F918F917F916F915F914F913F91C7
S11305F02F910F900BBE0F9009BE0F9008BE0F9065
S11306000FBE0F901F9018951F920F920FB60F9266
S1130610112408B60F9218BE09B60F9219BE0BB674
S11306200F921BBE2F933F934F935F936F937F93D0
S11306308F939F93AF93BF93EF93FF934091740273
S113064050917502E0915820F091592064E080E4C3
S113065092E01995FF91EF91BF91AF919F918F9186
S11306607F916F915F914F913F912F910F900BBEAE
S11306700F9009BE0F9008BE0F900FBE0F901F90F1
S113068018951F920F920FB60F92112408B60F926D
S113069018BE09B60F9219BE0BB60F921BBE2F934C
S11306A03F934F935F936F937F938F939F93AF93F6
S11306B0BF93EF93FF9340917C0250917D02E091B0
S11306C05820F091592068E080E492E01995FF9158
S11306D0EF91BF91AF919F918F917F916F915F91B6
S11306E04F913F912F910F900BBE0F9009BE0F9029
S11306F008BE0F900FBE0F901F9018958FEF809338
S113070070008093710080937200809373008093D3
S1130710740080937500809376009FB7F894E0E5A9
S1130720F0E08081826080839FBF818181FFFDCF63
S113073061E080E490E00E940D0D9FB7F894E0E53D
S1130740F0E080818E7F80839FBF08951F920F9277
S11307500FB60F92112408B60F9218BE0BB60F9263
S11307601BBE8F939F93EF93FF93ECE5F0E28081A0
S11307709181019680839183FF91EF919F918F9155
S11307800F900BBE0F9008BE0F900FBE0F901F90DE
S113079018951F920F920FB60F92112408B60F925C
S11307A018BE09B60F9219BE0BB60F921BBECF929C
S11307B0DF92EF92FF920F931F932F933F934F93E8
S11307C05F936F937F938F939F93AF93BF93EF93B5
S11307D0FF93ECE5F0E280819181228133818217DD
S11307E09307F0F121E020930204E0916220F0915C
S11307F063203097A9F16091080470910904A0E086
S1130800B0E0DC0199278827AB0160E070E08C013F
S11308109D01042B152B262B372BC901B801ACE500
S1130820B0E212960D911C91139720E030E09801EC
S1130830112700271496CD90DC901597E12CF12C0C
S11308400C291D292E293F290617170728073907C0
S113085030F0C901B8016F5F7F4F8F4F9F4F1995DB
S1130860FF91EF91BF91AF919F918F917F916F9184
S11308705F914F913F912F911F910F91FF90EF90B6
S1130880DF90CF900F900BBE0F9009BE0F9008BE63
S11308900F900FBE0F901F9018951F920F920FB6D6
S11308A00F92112408B60F9218BE09B60F9219BE02
S11308B00BB60F921BBE2F933F934F935F936F938F
S11308C07F938F939F93AF93BF93EF93FF93E091A5
S11308D05620F0915720309709F01995FF91EF9128
S11308E0BF91AF919F918F917F916F915F914F9144
S11308F03F912F910F900BBE0F9009BE0F9008BE31
S11309000F900FBE0F901F9018951F920F920FB665
S11309100F92112408B60F9218BE09B60F9219BE91
S11309200BB60F921BBE2F933F934F935F936F931E
S11309307F938F939F93AF93BF93EF93FF93E09134
S11309405420F0915520309709F01995FF91EF91BB
S1130950BF91AF919F918F917F916F915F914F91D3
S11309603F912F910F900BBE0F9009BE0F9008BEC0
S11309700F900FBE0F901F9018951F920F920FB6F5
S11309800F92112408B60F9218BE09B60F9219BE21
S11309900BB60F921BBE2F933F934F935F936F93AE
S11309A07F938F939F93AF93BF93EF93FF93E091C4
S11309B05220F0915320309709F01995FF91EF914F
S11309C0BF91AF919F918F917F916F915F914F9163
S11309D03F912F910F900BBE0F9009BE0F9008BE50
S11309E00F900FBE0F901F9018951F920F920FB685
S11309F00F92112408B60F9218BE09B60F9219BEB1
S1130A000BB60F921BBE2F933F934F935F936F933D
S1130A107F938F939F93AF93BF93EF93FF93E09153
S1130A205020F0915120309709F01995FF91EF91E2
S1130A30BF91AF919F918F917F916F915F914F91F2
S1130A403F912F910F900BBE0F9009BE0F9008BEDF
S1130A500F900FBE0F901F9018951F920F920FB614
S1130A600F92112408B60F9218BE09B60F9219BE40
S1130A700BB60F921BBE2F933F934F935F936F93CD
S1130A807F938F939F93AF93BF93EF93FF93E091E3
S1130A904E20F0914F20309709F01995FF91EF9176
S1130AA0BF91AF919F918F917F916F915F914F9182
S1130AB03F912F910F900BBE0F9009BE0F9008BE6F
S1130AC00F900FBE0F901F9018951F920F920FB6A4
S1130AD00F92112408B60F9218BE09B60F9219BED0
S1130AE00BB60F921BBE2F933F934F935F936F935D
S1130AF07F938F939F93AF93BF93EF93FF93E09173
S1130B004C20F0914D20309709F01995FF91EF9109
S1130B10BF91AF919F918F917F916F915F914F9111
S1130B203F912F910F900BBE0F9009BE0F9008BEFE
S1130B300F900FBE0F901F9018951F920F920FB633
S1130B400F92112408B60F9218BE09B60F9219BE5F
S1130B500BB60F921BBE2F933F934F935F936F93EC
S1130B607F938F939F93AF93BF93EF93FF93E09102
S1130B704A20F0914B20309709F01995FF91EF919D
S1130B80BF91AF919F918F917F916F915F914F91A1
S1130B903F912F910F900BBE0F9009BE0F9008BE8E
S1130BA00F900FBE0F901F9018951F920F920FB6C3
S1130BB00F92112408B60F9218BE09B60F9219BEEF
S1130BC00BB60F921BBE2F933F934F935F936F937C
S1130BD07F938F939F93AF93BF93EF93FF93E09192
S1130BE04820F0914920309709F01995FF91EF9131
S1130BF0BF91AF919F918F917F916F915F914F9131
S1130C003F912F910F900BBE0F9009BE0F9008BE1D
S1130C100F900FBE0F901F9018951F920F920FB652
S1130C200F92112408B60F9218BE09B60F9219BE7E
S1130C300BB60F921BBE2F933F934F935F936F930B
S1130C407F938F939F93AF93BF93EF93FF93E09121
S1130C504620F0914720309709F01995FF91EF91C4
S1130C60BF91AF919F918F917F916F915F914F91C0
S1130C703F912F910F900BBE0F9009BE0F9008BEAD
S1130C800F900FBE0F901F9018951F920F920FB6E2
S1130C900F92112408B60F9218BE09B60F9219BE0E
S1130CA00BB60F921BBE2F933F934F935F936F939B
S1130CB07F938F939F93AF93BF93EF93FF93E091B1
S1130CC04420F0914520309709F01995FF91EF9158
S1130CD0BF91AF919F918F917F916F915F914F9150
S1130CE03F912F910F900BBE0F9009BE0F9008BE3D
S1130CF00F900FBE0F901F9018951F920F920FB672
S1130D000F92112408B60F9218BE09B60F9219BE9D
S1130D100BB60F921BBE2F933F934F935F936F932A
S1130D207F938F939F93AF93BF93EF93FF93E09140
S1130D304220F0914320309709F01995FF91EF91EB
S1130D40BF91AF919F918F917F916F915F914F91DF
S1130D503F912F910F900BBE0F9009BE0F9008BECC
S1130D600F900FBE0F901F9018951F920F920FB601
S1130D700F92112408B60F9218BE09B60F9219BE2D
S1130D800BB60F921BBE2F933F934F935F936F93BA
S1130D907F938F939F93AF93BF93EF93FF93E091D0
S1130DA04020F0914120309709F01995FF91EF917F
S1130DB0BF91AF919F918F917F916F915F914F916F
S1130DC03F912F910F900BBE0F9009BE0F9008BE5C
S1130DD00F900FBE0F901F9018951F920F920FB691
S1130DE00F92112408B60F9218BE09B60F9219BEBD
S1130DF00BB60F921BBE2F933F934F935F936F934A
S1130E007F938F939F93AF93BF93EF93FF93E0915F
S1130E103E20F0913F20309709F01995FF91EF9112
S1130E20BF91AF919F918F917F916F915F914F91FE
S1130E303F912F910F900BBE0F9009BE0F9008BEEB
S1130E400F900FBE0F901F9018951F920F920FB620
S1130E500F92112408B60F9218BE09B60F9219BE4C
S1130E600BB60F921BBE2F933F934F935F936F93D9
S1130E707F938F939F93AF93BF93EF93FF93E091EF
S1130E803C20F0913D20309709F01995FF91EF91A6
S1130E90BF91AF919F918F917F916F915F914F918E
S1130EA03F912F910F900BBE0F9009BE0F9008BE7B
S1130EB00F900FBE0F901F9018951F920F920FB6B0
S1130EC00F92112408B60F9218BE09B60F9219BEDC
S1130ED00BB60F921BBE2F933F934F935F936F9369
S1130EE07F938F939F93AF93BF93EF93FF93E0917F
S1130EF03A20F0913B20309709F01995FF91EF913A
S1130F00BF91AF919F918F917F916F915F914F911D
S1130F103F912F910F900BBE0F9009BE0F9008BE0A
S1130F200F900FBE0F901F9018951F920F920FB63F
S1130F300F92112408B60F9218BE09B60F9219BE6B
S1130F400BB60F921BBE2F933F934F935F936F93F8
S1130F507F938F939F93AF93BF93EF93FF93E0910E
S1130F603820F0913920309709F01995FF91EF91CD
S1130F70BF91AF919F918F917F916F915F914F91AD
S1130F803F912F910F900BBE0F9009BE0F9008BE9A
S1130F900F900FBE0F901F9018951F920F920FB6CF
S1130FA00F92112408B60F9218BE09B60F9219BEFB
S1130FB00BB60F921BBE2F933F934F935F936F9388
S1130FC07F938F939F93AF93BF93EF93FF93E0919E
S1130FD03620F0913720309709F01995FF91EF9161
S1130FE0BF91AF919F918F917F916F915F914F913D
S1130FF03F912F910F900BBE0F9009BE0F9008BE2A
S11310000F900FBE0F901F9018951F920F920FB65E
S11310100F92112408B60F9218BE09B60F9219BE8A
S11310200BB60F921BBE2F933F934F935F936F9317
S11310307F938F939F93AF93BF93EF93FF93E0912D
S11310403420F0913520309709F01995FF91EF91F4
S1131050BF91AF919F918F917F916F915F914F91CC
S11310603F912F910F900BBE0F9009BE0F9008BEB9
S11310700F900FBE0F901F9018951F920F920FB6EE
S11310800F92112408B60F9218BE09B60F9219BE1A
S11310900BB60F921BBE2F933F934F935F936F93A7
S11310A07F938F939F93AF93BF93EF93FF93E091BD
S11310B03220F0913320309709F01995FF91EF9188
S11310C0BF91AF919F918F917F916F915F914F915C
S11310D03F912F910F900BBE0F9009BE0F9008BE49
S11310E00F900FBE0F901F9018951F920F920FB67E
S11310F00F92112408B60F9218BE09B60F9219BEAA
S11311000BB60F921BBE2F933F934F935F936F9336
S11311107F938F939F93AF93BF93EF93FF93E0914C
S11311203020F0913120309709F01995FF91EF911B
S1131130BF91AF919F918F917F916F915F914F91EB
S11311403F912F910F900BBE0F9009BE0F9008BED8
S11311500F900FBE0F901F9018951F920F920FB60D
S11311600F92112408B60F9218BE09B60F9219BE39
S11311700BB60F921BBE2F933F934F935F936F93C6
S11311807F938F939F93AF93BF93EF93FF93E091DC
S11311902E20F0912F20309709F01995FF91EF91AF
S11311A0BF91AF919F918F917F916F915F914F917B
S11311B03F912F910F900BBE0F9009BE0F9008BE68
S11311C00F900FBE0F901F9018951F920F920FB69D
S11311D00F92112408B60F9218BE09B60F9219BEC9
S11311E00BB60F921BBE2F933F934F935F936F9356
S11311F07F938F939F93AF93BF93EF93FF93E0916C
S11312002C20F0912D20309709F01995FF91EF9142
S1131210BF91AF919F918F917F916F915F914F910A
S11312203F912F910F900BBE0F9009BE0F9008BEF7
S11312300F900FBE0F901F9018951F920F920FB62C
S11312400F92112408B60F9218BE09B60F9219BE58
S11312500BB60F921BBE2F933F934F935F936F93E5
S11312607F938F939F93AF93BF93EF93FF93E091FB
S11312702A20F0912B20309709F01995FF91EF91D6
S1131280BF91AF919F918F917F916F915F914F919A
S11312903F912F910F900BBE0F9009BE0F9008BE87
S11312A00F900FBE0F901F9018951F920F920FB6BC
S11312B00F92112408B60F9218BE09B60F9219BEE8
S11312C00BB60F921BBE2F933F934F935F936F9375
S11312D07F938F939F93AF93BF93EF93FF93E0918B
S11312E02820F0912920309709F01995FF91EF916A
S11312F0BF91AF919F918F917F916F915F914F912A
S11313003F912F910F900BBE0F9009BE0F9008BE16
S11313100F900FBE0F901F9018951F920F920FB64B
S11313200F92112408B60F9218BE09B60F9219BE77
S11313300BB60F921BBE2F933F934F935F936F9304
S11313407F938F939F93AF93BF93EF93FF93E0911A
S11313502620F0912720309709F01995FF91EF91FD
S1131360BF91AF919F918F917F916F915F914F91B9
S11313703F912F910F900BBE0F9009BE0F9008BEA6
S11313800F900FBE0F901F9018951F920F920FB6DB
S11313900F92112408B60F9218BE09B60F9219BE07
S11313A00BB60F921BBE2F933F934F935F936F9394
S11313B07F938F939F93AF93BF93EF93FF93E091AA
S11313C02420F0912520309709F01995FF91EF9191
S11313D0BF91AF919F918F917F916F915F914F9149
S11313E03F912F910F900BBE0F9009BE0F9008BE36
S11313F00F900FBE0F901F9018951F920F920FB66B
S11314000F92112408B60F9218BE09B60F9219BE96
S11314100BB60F921BBE2F933F934F935F936F9323
S11314207F938F939F93AF93BF93EF93FF93E09139
S11314302220F0912320309709F01995FF91EF9124
S1131440BF91AF919F918F917F916F915F914F91D8
S11314503F912F910F900BBE0F9009BE0F9008BEC5
S11314600F900FBE0F901F9018951F920F920FB6FA
S11314700F92112408B60F9218BE09B60F9219BE26
S11314800BB60F921BBE2F933F934F935F936F93B3
S11314907F938F939F93AF93BF93EF93FF93E091C9
S11314A02020F0912120309709F01995FF91EF91B8
S11314B0BF91AF919F918F917F916F915F914F9168
S11314C03F912F910F900BBE0F9009BE0F9008BE55
S11314D00F900FBE0F901F9018951F920F920FB68A
S11314E00F92112408B60F9218BE09B60F9219BEB6
S11314F00BB60F921BBE2F933F934F935F936F9343
S11315007F938F939F93AF93BF93EF93FF93E09158
S11315101E20F0911F20309709F01995FF91EF914B
S1131520BF91AF919F918F917F916F915F914F91F7
S11315303F912F910F900BBE0F9009BE0F9008BEE4
S11315400F900FBE0F901F9018951F920F920FB619
S11315500F92112408B60F9218BE09B60F9219BE45
S11315600BB60F921BBE2F933F934F935F936F93D2
S11315707F938F939F93AF93BF93EF93FF93E091E8
S11315801C20F0911D20309709F01995FF91EF91DF
S1131590BF91AF919F918F917F916F915F914F9187
S11315A03F912F910F900BBE0F9009BE0F9008BE74
S11315B00F900FBE0F901F9018951F920F920FB6A9
S11315C00F92112408B60F9218BE09B60F9219BED5
S11315D00BB60F921BBE2F933F934F935F936F9362
S11315E07F938F939F93AF93BF93EF93FF93E09178
S11315F01A20F0911B20309709F01995FF91EF9173
S1131600BF91AF919F918F917F916F915F914F9116
S11316103F912F910F900BBE0F9009BE0F9008BE03
S11316200F900FBE0F901F9018951F920F920FB638
S11316300F92112408B60F9218BE09B60F9219BE64
S11316400BB60F921BBE2F933F934F935F936F93F1
S11316507F938F939F93AF93BF93EF93FF93E09107
S11316601820F0911920309709F01995FF91EF9106
S1131670BF91AF919F918F917F916F915F914F91A6
S11316803F912F910F900BBE0F9009BE0F9008BE93
S11316900F900FBE0F901F9018951F920F920FB6C8
S11316A00F92112408B60F9218BE09B60F9219BEF4
S11316B00BB60F921BBE2F933F934F935F936F9381
S11316C07F938F939F93AF93BF93EF93FF93E09197
S11316D01620F0911720309709F01995FF91EF919A
S11316E0BF91AF919F918F917F916F915F914F9136
S11316F03F912F910F900BBE0F9009BE0F9008BE23
S11317000F900FBE0F901F9018951F920F920FB657
S11317100F92112408B60F9218BE09B60F9219BE83
S11317200BB60F921BBE2F933F934F935F936F9310
S11317307F938F939F93AF93BF93EF93FF93E09126
S11317401420F0911520309709F01995FF91EF912D
S1131750BF91AF919F918F917F916F915F914F91C5
S11317603F912F910F900BBE0F9009BE0F9008BEB2
S11317700F900FBE0F901F9018951F920F920FB6E7
S11317800F92112408B60F9218BE09B60F9219BE13
S11317900BB60F921BBE2F933F934F935F936F93A0
S11317A07F938F939F93AF93BF93EF93FF93E091B6
S11317B01220F0911320309709F01995FF91EF91C1
S11317C0BF91AF919F918F917F916F915F914F9155
S11317D03F912F910F900BBE0F9009BE0F9008BE42
S11317E00F900FBE0F901F9018951F920F920FB677
S11317F00F92112408B60F9218BE09B60F9219BEA3
S11318000BB60F921BBE2F933F934F935F936F932F
S11318107F938F939F93AF93BF93EF93FF93E09145
S11318201020F0911120309709F01995FF91EF9154
S1131830BF91AF919F918F917F916F915F914F91E4
S11318403F912F910F900BBE0F9009BE0F9008BED1
S11318500F900FBE0F901F9018951F920F920FB606
S11318600F92112408B60F9218BE09B60F9219BE32
S11318700BB60F921BBE2F933F934F935F936F93BF
S11318807F938F939F93AF93BF93EF93FF93E091D5
S11318900E20F0910F20309709F01995FF91EF91E8
S11318A0BF91AF919F918F917F916F915F914F9174
S11318B03F912F910F900BBE0F9009BE0F9008BE61
S11318C00F900FBE0F901F9018951F920F920FB696
S11318D00F92112408B60F9218BE09B60F9219BEC2
S11318E00BB60F921BBE2F933F934F935F936F934F
S11318F07F938F939F93AF93BF93EF93FF93E09165
S11319000C20F0910D20309709F01995FF91EF917B
S1131910BF91AF919F918F917F916F915F914F9103
S11319203F912F910F900BBE0F9009BE0F9008BEF0
S11319300F900FBE0F901F9018951F920F920FB625
S11319400F92112408B60F9218BE09B60F9219BE51
S11319500BB60F921BBE2F933F934F935F936F93DE
S11319607F938F939F93AF93BF93EF93FF93E091F4
S11319700A20F0910B20309709F01995FF91EF910F
S1131980BF91AF919F918F917F916F915F914F9193
S11319903F912F910F900BBE0F9009BE0F9008BE80
S11319A00F900FBE0F901F9018951F920F920FB6B5
S11319B00F92112408B60F9218BE09B60F9219BEE1
S11319C00BB60F921BBE2F933F934F935F936F936E
S11319D07F938F939F93AF93BF93EF93FF93E09184
S11319E00820F0910920309709F01995FF91EF91A3
S11319F0BF91AF919F918F917F916F915F914F9123
S1131A003F912F910F900BBE0F9009BE0F9008BE0F
S1131A100F900FBE0F901F9018951BBEFC0128ED70
S1131A2024BF60830895CF93DF93FC01709620E078
S1131A3030E0C62FD0E0DE01022E02C0B595A79596
S1131A400A94E2F7A0FD50832F5F3F4F3196283070
S1131A50310589F740FF0AC041FF03C0FC016583DB
S1131A6002C0FC016683FC01618302C0FC01628345
S1131A70DF91CF91089543E050E061E080E896E083
S1131A80D2DF43E050E062E080E896E0CCDF43E060
S1131A9050E064E080E896E0C6DF43E050E068E0B0
S1131AA080E896E0C0DF43E050E060E180E896E043
S1131AB0BADF43E050E060E280E896E0B4DF43E060
S1131AC050E060E480E896E0AEDF43E050E060E898
S1131AD080E896E0A8DF40E058E161E080E696E027
S1131AE0A2DF40E058E162E080E696E09CDF40E05F
S1131AF058E164E080E696E096DF40E058E168E073
S1131B0080E696E090DF40E058E160E180E696E010
S1131B108ADF40E058E160E280E696E084DF40E05E
S1131B2058E161E080EE97E07EDF40E058E162E05A
S1131B3080EE97E078DF43E050E060E880E496E0F0
S1131B4072DF43E050E060E280E496E06CDF40E066
S1131B5050E060E480E496E066DF43E050E068E053
S1131B6080EC97E060DF40E050E061E080E096E0E8
S1131B705ADF40E050E064E080E096E054DF40E06B
S1131B8050E062E080E296E04EDF40E057E062E041
S1131B9080E296E048DF40E057E061E080E296E0D2
S1131BA042DF41E050E068E080E296E03CDF40E064
S1131BB057E064E080E296E036DF43E050E068E01E
S1131BC080EC97E030DF43E050E068E080E496E0AA
S1131BD02ADF40E050E064E080E496E024DF43E064
S1131BE050E068E080E696E01EDF40E050E064E00C
S1131BF080E696E018CF08950E947E033CDF80E0E3
S1131C0090E29F938F93AAD10F900F9060E071E0C0
S1131C1080E090E00E942101F9CF0CD005C1FDD0F5
S1131C2040F0F4D030F021F45F3F19F0D6C05111E8
S1131C302FC1D9C00AD198F39923C9F35523B1F31D
S1131C40951B550BBB27AA2762177307840738F027
S1131C509F5F5F4F220F331F441FAA1FA9F333D086
S1131C600E2E3AF0E0E830D091505040E695001C3A
S1131C70CAF729D0FE2F27D0660F771F881FBB1FF6
S1131C80261737074807AB07B0E809F0BB0B802DD0
S1131C90BF01FF2793585F4F2AF09E3F510568F01C
S1131CA09CC0F6C05F3FECF3983EDCF386957795D5
S1131CB06795B795F7959F5FC9F7880F911D96951E
S1131CC0879597F90895E1E0660F771F881FBB1F7A
S1131CD0621773078407BA0720F0621B730B840B27
S1131CE0BA0BEE1F88F7E0950895BEE304D008F41C
S1131CF090E80895BFE322273327A901AED058F115
S1131D009F5740F1B91738F1BFE3B91B9927B85071
S1131D103AF4660F771F881F991FB395D2F316C044
S1131D20B8504AF0232F342F452F562F672F782F82
S1131D308827B850BAF7B85F49F0869577956795C4
S1131D405795479537952795BA95B9F70EF44ED020
S1131D5088940895889460E070E0CB010895E89435
S1131D60F92F96EBFF2381F0121613061406440B89
S1131D709395F69587957795679557954040FF23FA
S1131D80B9F71BC099270895882351F49850D2F7C6
S1131D90872B762F652F542F432F322F20E0B1F35A
S1131DA0121613061406440B88233AF09A95440F2E
S1131DB0551F661F771F881FCAF755234AF4440F1F
S1131DC0551F11F460FF04C06F5F7F4F8F4F9F4F0B
S1131DD0880F9695879597F9089597F99F6780E8F6
S1131DE070E060E008959FEF80EC089590958095F1
S1131DF07095609550954095309521953F4F4F4F84
S1131E005F4F6F4F7F4F8F4F9F4F089500240A9469
S1131E101616170618060906089500240A941216C1
S1131E201306140605060895092E0394000C11F4F4
S1131E30882352F0BB0F40F4BF2B11F460FF04C0A1
S1131E406F5F7F4F8F4F9F4F089557FD9058440FFA
S1131E50551F59F05F3F71F04795880F97FB991F05
S1131E6061F09F3F79F087950895121613061406C2
S1131E70551FF2CF4695F1DF08C01616170618064F
S1131E80991FF1CF86957105610508940895E8942A
S1131E90BB2766277727CB0197F90895DF93CF9364
S1131EA01F930F939A9DF02D219FF00D8B9DF00DA4
S1131EB08A9DE02DF10D039FF00D029FE00DF11DB1
S1131EC04E9DE00DF11D5E9DF00D4F9DF00D7F9335
S1131ED06F93BF92AF925F934F93D50130D08B0134
S1131EE0AC01D7012CD0EB01E80FF91FD6011FD0AC
S1131EF02F913F91D60123D0C60FD71FE81FF91F9A
S1131F00AF91BF9114D02F913F9119D0C60FD71F15
S1131F10E81FF91FD60113D0E60FF71F9801BE0181
S1131F20CF0111240F911F91CF91DF91089507D014
S1131F30460F571FC81FD91F08F431960895A29F52
S1131F40B001B39FC001A39F700D811D1124911D89
S1131F50B29F700D811D1124911D0895CF93DF93BD
S1131F60CDB7DEB7AE014A5F5F4FFA01619171915F
S1131F70AF01809166209091672003D0DF91CF91CB
S1131F8008952F923F924F925F926F927F928F9219
S1131F909F92AF92BF92CF92DF92EF92FF920F93F4
S1131FA01F93CF93DF93CDB7DEB72C97CDBFDEBFA2
S1131FB07C016B018A01FC0116821782838181FFF7
S1131FC0B0C1CE0101964C01F7019381F60193FD56
S1131FD0859193FF81916F01882309F49EC1853215
S1131FE039F493FD859193FF81916F01853221F43A
S1131FF0B70190E0C4D1E8CF512C312C20E020323D
S1132000A0F48B3269F030F4803259F0833269F4F1
S113201020612CC08D3239F0803339F4216026C020
S11320202260246023C0286021C027FD27C030ED32
S1132030380F3A3078F426FF06C0FAE05F9E300D80
S11320401124532E13C08AE0389E300D1124332EF0
S113205020620CC08E3221F426FD5FC1206406C0CC
S11320608C3611F4206802C0883641F4F60193FDE1
S1132070859193FF81916F018111C1CF982F9F7D2D
S11320809554933028F40C5F1F4FFFE3F9830DC080
S1132090833631F0833771F0833509F057C021C09E
S11320A0F801808189830E5F1F4F44244394512C8F
S11320B0540114C03801F2E06F0E711CF801A080C5
S11320C0B18026FF03C0652D70E002C06FEF7FEF83
S11320D0C5012C8749D12C0183012C852F77222E11
S11320E016C03801F2E06F0E711CF801A080B180B7
S11320F026FF03C0652D70E002C06FEF7FEFC501BE
S11321002C8727D12C012C852068222E830123FCC7
S113211019C0832D90E048165906A0F4B70180E257
S113212090E02DD13A94F5CFF50127FC859127FE57
S113213081915F01B70190E022D131103A94F1E02E
S11321404F1A51084114510479F7DEC0843611F056
S1132150893631F5F80127FF07C0608171818281DA
S113216093810C5F1F4F08C060817181072E000CA2
S1132170880B990B0E5F1F4F2F76722E97FF09C0A5
S113218090958095709561957F4F8F4F9F4F2068F4
S1132190722E2AE030E0A4012AD1A82EA81843C048
S11321A0853729F42F7EB22E2AE030E025C0F22FA5
S11321B0F97FBF2E8F36C1F018F4883579F0ADC0A1
S11321C0803719F0883721F0A8C02F2F2061B22E54
S11321D0B4FE0DC08B2D8460B82E09C024FF0AC044
S11321E09F2F9660B92E06C028E030E005C020E19C
S11321F030E002C020E132E0F801B7FE07C06081A0
S11322007181828193810C5F1F4F06C0608171814F
S113221080E090E00E5F1F4FA401E9D0A82EA8181B
S1132220FB2DFF777F2E76FE0BC0372D3E7FA51446
S113223050F474FE0AC072FC08C0372D3E7E05C0FF
S1132240BA2C372D03C0BA2C01C0B52C34FF0DC0F5
S1132250FE01EA0DF11D8081803311F4397E09C03D
S113226032FF06C0B394B39404C0832F867809F078
S1132270B39433FD12C030FF06C05A2CB31418F4C3
S1132280530C5B18B32CB31460F4B70180E290E0F4
S11322903C8775D0B3943C85F6CFB31410F43B1847
S11322A001C0312C34FF11C0B70180E390E03C87BA
S11322B066D03C8532FF16C031FD03C088E790E04C
S11322C002C088E590E0B7010CC0832F867851F0F6
S11322D031FF02C08BE201C080E237FD8DE2B7011D
S11322E090E04DD0A51430F4B70180E390E047D0DE
S11322F05A94F8CFAA94F401EA0DF11D8081B70134
S113230090E03DD0A110F6CF332009F45DCEB701A3
S113231080E290E034D03A94F7CFF7018681978138
S113232002C08FEF9FEF2C96CDBFDEBFDF91CF9120
S11323301F910F91FF90EF90DF90CF90BF90AF90DF
S11323409F908F907F906F905F904F903F902F90D1
S11323500895FC010590615070400110D8F78095F4
S113236090958E0F9F1F0895FC016150704001905D
S11323700110D8F7809590958E0F9F1F08950F93A5
S11323801F93CF93DF93FB01238121FD03C08FEFC4
S11323909FEF28C022FF16C04681578124813581D2
S11323A04217530744F4A081B1819D012F5F3F4F31
S11323B0208331838C93268137812F5F3F4F26837F
S11323C0378310C0EB01092F182F0084F185E02D0D
S11323D01995892BE1F68E819F8101968E839F83C7
S11323E0812F902FDF91CF911F910F910895FA01C2
S11323F0AA27283051F1203181F1E8946F936E7F40
S11324006E5F7F4F8F4F9F4FAF4FB1E03ED0B4E030
S11324103CD0670F781F891F9A1FA11D680F791F71
S11324208A1F911DA11D6A0F711D811D911DA11D82
S113243020D009F468943F912AE0269F1124301992
S1132440305D3193DEF6CF010895462F4770405D2D
S11324504193B3E00FD0C9F7F6CF462F4F70405DDC
S11324604A3318F0495D31FD4052419302D0A9F737
S1132470EACFB4E0A6959795879577956795BA9531
S1132480C9F700976105710508959B01AC010A2EF7
S113249006945795479537952795BA95C9F7620FCE
S11124A0731F841F951FA01D0895F894FFCF8D
S10B24AE415344414441000084
S9030000FC
