S01800004743435F50726163746963655F3030312E73726563C5
S1130000F9C000001DC100001BC1000019C100009F
S113001017C1000015C1000013C1000011C1000088
S11300200FC100000DC10000A2C60000C3C600003D
S113003007C1000005C1000041C7000077C70000E8
S1130040ADC70000E3C700000C943E080C9476088A
S11300500C94AE080C94E6080C941E090C945609F2
S1130060EFC00000EDC00000EBC00000E9C00000DC
S1130070E7C00000E5C00000E3C00000E1C00000EC
S1130080DFC00000DDC00000DBC00000D9C00000FC
S1130090D7C00000D5C00000D3C000002EC50000AA
S11300A069C50000A4C50000DFC50000C9C0000088
S11300B0C7C00000C5C00000C3C000000C94BE0B44
S11300C00C94F60B0C942E0C0C94660C0C949E0C55
S11300D00C94D60C0C940E0D0C94460D0C947E0DC1
S11300E00C94B60DADC00000ABC00000A9C0000068
S11300F0A7C00000A5C00000A3C00000A1C000006C
S11301009FC000009DC000009BC0000099C000007B
S113011097C0000095C0000093C00000FAC300001F
S113012035C4000070C40000ABC4000089C00000E6
S113013087C000000C948E090C94C6090C94FE0927
S11301400C94360A0C946E0A0C94A60A0C94DE0ADB
S11301500C94160B0C944E0B0C94860B71C000007F
S11301606FC000006DC000006BC0000069C00000DB
S113017067C0000065C0000063C0000061C00000EB
S11301805FC000005DC000005BC0000059C00000FB
S113019057C0000055C0000053C0000051C000000B
S11301A04FC000004DC000004BC0000049C000001B
S11301B00C94EE0D0C94260E0C945E0E0C94960E7C
S11301C00C94CE0E0C94060F0C943E0F0C94760FE8
S11301D00C94AE0F0C94E60F33C0000031C0000045
S11301E02FC000002DC000002BC0000029C000005B
S11301F027C0000011241FBECFEFCDBFDFE3DEBF59
S113020000E00CBF18BE19BE1ABE1BBE10E2A0E06F
S1130210B0E2E8E5FAE200E00BBF02C007900D92FD
S1130220A632B107D9F71BBE20E2A6E2B0E201C0B4
S11302301D92A239B207E1F70E9462110C942A15AB
S1130240DFCECF93DF931F92CDB7DEB780917E20B0
S113025090917F20E0917620F0917720BE016F5F2E
S11302607F4F19958981082E000C990B0F90DF910F
S1130270CF910895FC01918195FFFDCF608380E0CB
S113028090E00895FC0191819923ECF78081089511
S11302904F925F926F927F928F929F92AF92BF9292
S11302A0EF92FF920F931F93CF937C014A015B015E
S11302B028013901FC01848182FF16C0D901C801DB
S11302C0689412F8B695A795979587951694D1F7E3
S11302D0B901A801032E36E17695679557954795A0
S11302E03A95D1F7302D15C0D901C801689413F897
S11302F0B695A795979587951694D1F7B901A80156
S1130300032E37E176956795579547953A95D1F73A
S1130310302D88159905AA05BB0508F4A6C08416D6
S11303209506A606B70608F4A2C0F701848182FDEB
S113033004C0880C991CAA1CBB1CC301B201A501F2
S113034094010E947C132F3F31054105510508F4A7
S113035090C08FEF90E0A0E0B0E0C9EF05C028178F
S113036039074A075B0758F0880F991FAA1FBB1F5C
S1130370CD3F0CF48160CF5FC73089F74FC0CC23E9
S11303800CF04CC0D501C401880F991FAA1FBB1FD4
S1130390880F991FAA1FBB1F880F991FAA1FBB1F75
S11303A0481A590A6A0A7B0ACE3FF4F48DEF9FEF8C
S11303B08C1B9109C7FD939504C0440C551C661C05
S11303C0771C8A95D2F7D501C401B695A795979560
S11303D08795BC01CD01640D751D861D971DA50172
S11303E094010E947C1337C083E08C0FA501940113
S11303F004C0220F331F441F551F8A95D2F7DA0118
S1130400C901B695A79597958795BC01CD01640D53
S1130410751D861D971D0E947C131DC083E08C0FE3
S1130420A501940104C0220F331F441F551F8A9550
S1130430D2F7DA01C901B695A79597958795BC01BE
S1130440CD01640D751D861D971D0E947C132150DE
S1130450310941095109832F8F70C295C07FC82B80
S1130460F701C783268381E018C080E016C080E0CE
S113047014C0D501C401880F991FAA1FBB1F880F80
S1130480991FAA1FBB1F880F991FAA1FBB1F481AB9
S1130490590A6A0A7B0AC9EF89CFCF911F910F913C
S11304A0FF90EF90BF90AF909F908F907F906F9050
S11304B05F904F9008950F931F93CF93DF93EC01B8
S11304C08B01009709F436C1803C910521F460E169
S11304D080E041D42FC1C03484E0D80721F468E01F
S11304E080E039D427C1C115E4E0DE0721F464E0DB
S11304F080E031D41FC1C038F1E0DF0721F462E0AD
S113050080E029D417C1C11581E0D80721F461E046
S113051080E021D40FC1C038E3E0DE0721F461E0BC
S113052081E019D407C1C039F3E0DF0721F461E0A9
S113053082E011D4FFC0C11582E0D80721F462E043
S113054081E009D4F7C0C034E2E0DE0721F462E0C0
S113055082E001D4EFC0C115F3E0DF0721F464E0C9
S113056081E0F9D3E7C0C03283E0D80721F464E026
S113057082E0F1D3DFC0C115E8E0DE0721F461E0D9
S113058083E0E9D3D7C0C115F9E0DF0721F461E0C6
S113059084E0E1D3CFC0C1158AE0D80721F461E03B
S11305A085E0D9D3C7C0C115EBE0DE0721F461E0D3
S11305B086E0D1D3BFC0C034F8E0DF0721F462E0A5
S11305C083E0C9D3B7C0C03489E0D80721F462E01E
S11305D084E0C1D3AFC0C034EAE0DE0721F462E0B6
S11305E085E0B9D3A7C0C034FBE0DF0721F462E0A3
S11305F086E0B1D39FC0C03988E0D80721F464E015
S113060083E0A9D397C0C039E9E0DE0721F464E0B0
S113061084E0A1D38FC0C039FAE0DF0721F464E09D
S113062085E099D387C0C0398BE0D80721F464E012
S113063086E091D37FC0C03CE8E0DE0721F468E0A7
S113064083E089D377C0C03CF9E0DF0721F468E098
S113065084E081D36FC0C03C8AE0D80721F468E00D
S113066085E079D367C0C03CEBE0DE0721F468E0A5
S113067086E071D35FC0C03AF8E0DF0721F460E19F
S113068083E069D357C0C03A89E0D80721F460E118
S113069084E061D34FC0C03AEAE0DE0721F460E1B0
S11306A085E059D347C0C03AFBE0DF0721F460E19D
S11306B086E051D33FC0C03B88E0D80721F460E214
S11306C083E049D337C0C03BE9E0DE0721F460E2B0
S11306D084E041D32FC0C03BFAE0DF0721F460E29D
S11306E085E039D327C0C03B8BE0D80721F460E212
S11306F086E031D31FC0C038E4E0DE0721F460E4B3
S113070083E029D317C0C039F4E0DF0721F460E4A3
S113071084E021D30FC0C03A84E0D80721F460E418
S113072085E019D307C0C03BE4E0DE0719F460E4B8
S113073086E011D38D818F738D83F8019581848137
S1130740892B9681911198E0892B8D83F801408142
S113075051816281738100E018E428EE31E0CE011A
S113076097DD9C8198609C839C8190619C83DF9140
S1130770CF911F910F91089561E085E0ECD264E080
S113078085E0E9D28FEF80938006E0E0FAE087E02D
S1130790808383EF818308954F925F926F927F925B
S11307A08F929F92AF92BF92CF92DF92EF92FF927D
S11307B00F931F93CF93DF93CDB7DEB76897CDBF69
S11307C0DEBF7C0100E01AE0F80110A211A280E172
S11307D0EDE0F0E2DE01119601900D928A95E1F7C9
S11307E088E0EDE1F0E2DE01519601900D928A95E8
S11307F0E1F7F701EE0FFF1FEE0FFF1F81E090E01E
S11308008C0F9D1FE80FF91F20E030E040E854E40E
S113081060817181828193810E9419139B01AC01D3
S113082060E074E284EF9BE40E94F71120E030E082
S113083040E85FE30E9492110E945F12F80166A3F0
S113084077A366A177A1C6A0D7A080E090E00E941C
S11308508B124B015C01B60180E090E00E948B1288
S11308602B013C01EE0CFF1CE1E0F0E0EC0FFD1F5E
S1130870EE0DFF1D60897189072E000C880B990B02
S11308800E948D1220E030E048EC52E40E94F711FF
S11308909B01AC0160E070E080E89FE30E94F711E7
S11308A09B01AC01C301B2010E94F7119B01AC0191
S11308B0C501B4010E9492110E945F12F80160A761
S11308C071A780A591A582A793A780A591A584A7C8
S11308D095A780A591A586A797A787E080836896AA
S11308E0CDBFDEBFDF91CF911F910F91FF90EF90AD
S11308F0DF90CF90BF90AF909F908F907F906F903C
S11309005F904F900895E0E0FAE0108210A211A2E7
S113091008951F920F920FB60F92112408B60F92EA
S113092018BE09B60F9219BE0BB60F921BBE2F93B9
S11309303F934F935F936F937F938F939F93AF9363
S1130940BF93EF93FF934091240250912502E091CD
S11309507A20F0917B2061E080E092E01995FF918C
S1130960EF91BF91AF919F918F917F916F915F9123
S11309704F913F912F910F900BBE0F9009BE0F9096
S113098008BE0F900FBE0F901F9018951F920F92E4
S11309900FB60F92112408B60F9218BE09B60F9223
S11309A019BE0BB60F921BBE2F933F934F935F93C9
S11309B06F937F938F939F93AF93BF93EF93FF9323
S11309C040912C0250912D02E0917A20F0917B20ED
S11309D062E080E092E01995FF91EF91BF91AF91B1
S11309E09F918F917F916F915F914F913F912F9143
S11309F00F900BBE0F9009BE0F9008BE0F900FBE54
S1130A000F901F9018951F920F920FB60F921124FA
S1130A1008B60F9218BE09B60F9219BE0BB60F9204
S1130A201BBE2F933F934F935F936F937F938F934B
S1130A309F93AF93BF93EF93FF93409134025091F0
S1130A403502E0917A20F0917B2064E080E092E02E
S1130A501995FF91EF91BF91AF919F918F917F91E4
S1130A606F915F914F913F912F910F900BBE0F901B
S1130A7009BE0F9008BE0F900FBE0F901F901895DF
S1130A801F920F920FB60F92112408B60F9218BE40
S1130A9009B60F9219BE0BB60F921BBE2F933F934C
S1130AA04F935F936F937F938F939F93AF93BF9372
S1130AB0EF93FF9340913C0250913D02E0917A20E4
S1130AC0F0917B2068E080E092E01995FF91EF912E
S1130AD0BF91AF919F918F917F916F915F914F9152
S1130AE03F912F910F900BBE0F9009BE0F9008BE3F
S1130AF00F900FBE0F901F9018951F920F920FB674
S1130B000F92112408B60F9218BE09B60F9219BE9F
S1130B100BB60F921BBE2F933F934F935F936F932C
S1130B207F938F939F93AF93BF93EF93FF934091E2
S1130B30640250916502E0917820F091792061E09F
S1130B4080E492E01995FF91EF91BF91AF919F914D
S1130B508F917F916F915F914F913F912F910F9062
S1130B600BBE0F9009BE0F9008BE0F900FBE0F90E2
S1130B701F9018951F920F920FB60F92112408B66A
S1130B800F9218BE09B60F9219BE0BB60F921BBE78
S1130B902F933F934F935F936F937F938F939F9381
S1130BA0AF93BF93EF93FF9340916C0250916D020A
S1130BB0E0917820F091792062E080E492E0199548
S1130BC0FF91EF91BF91AF919F918F917F916F9121
S1130BD05F914F913F912F910F900BBE0F9009BEE3
S1130BE00F9008BE0F900FBE0F901F9018951F9284
S1130BF00F920FB60F92112408B60F9218BE09B6C1
S1130C000F9219BE0BB60F921BBE2F933F934F93B7
S1130C105F936F937F938F939F93AF93BF93EF9360
S1130C20FF934091740250917502E0917820F09105
S1130C30792064E080E492E01995FF91EF91BF91EF
S1130C40AF919F918F917F916F915F914F913F9160
S1130C502F910F900BBE0F9009BE0F9008BE0F90FE
S1130C600FBE0F901F9018951F920F920FB60F9200
S1130C70112408B60F9218BE09B60F9219BE0BB60E
S1130C800F921BBE2F933F934F935F936F937F936A
S1130C908F939F93AF93BF93EF93FF9340917C0205
S1130CA050917D02E0917820F091792068E080E411
S1130CB092E01995FF91EF91BF91AF919F918F9120
S1130CC07F916F915F914F913F912F910F900BBE48
S1130CD00F9009BE0F9008BE0F900FBE0F901F908B
S1130CE01895682F80917E2090917F20E0917C2040
S1130CF0F0917D20199599231CF081E090E00895EE
S1130D008FEF9FEF08958FEF8093700080937100B1
S1130D1080937200809373008093740080937500B5
S1130D20809376009FB7F894E0E5F0E080818260DC
S1130D3080839FBF818181FFFDCF61E080E490E0EB
S1130D400E941E109FB7F894E0E5F0E080818E7F4A
S1130D5080839FBF08959FB7F894E82FF0E0E0598F
S1130D60FF4F60958081682360839FBF08951F9221
S1130D700F920FB60F92112408B60F9218BE0BB63D
S1130D800F921BBE8F939F93EF93FF93E0E8F0E2E3
S1130D9080819181019680839183FF91EF919F914E
S1130DA08F910F900BBE0F9008BE0F900FBE0F9047
S1130DB01F9018951F920F920FB60F92112408B628
S1130DC00F9218BE09B60F9219BE0BB60F921BBE36
S1130DD0CF92DF92EF92FF920F931F932F933F9343
S1130DE04F935F936F937F938F939F93AF93BF932F
S1130DF0EF93FF93E0E8F0E28081918122813381D7
S1130E0082179307F0F121E020930204E0918620F9
S1130E10F09187203097A9F160910804709109043A
S1130E20A0E0B0E0DC0199278827AB0160E070E026
S1130E308C019D01042B152B262B372BC901B801DE
S1130E40A0E8B0E212960D911C91139720E030E0D7
S1130E509801112700271496CD90DC901597E12C6A
S1130E60F12C0C291D292E293F29061717072807BD
S1130E70390730F0C901B8016F5F7F4F8F4F9F4F23
S1130E801995FF91EF91BF91AF919F918F917F91B0
S1130E906F915F914F913F912F911F910F91FF900F
S1130EA0EF90DF90CF900F900BBE0F9009BE0F9084
S1130EB008BE0F900FBE0F901F9018951F920F92AF
S1130EC00FB60F92112408B60F9218BE09B60F92EE
S1130ED019BE0BB60F921BBE2F933F934F935F9394
S1130EE06F937F938F939F93AF93BF93EF93FF93EE
S1130EF0E0917420F0917520309709F01995FF91D5
S1130F00EF91BF91AF919F918F917F916F915F917D
S1130F104F913F912F910F900BBE0F9009BE0F90F0
S1130F2008BE0F900FBE0F901F9018951F920F923E
S1130F300FB60F92112408B60F9218BE09B60F927D
S1130F4019BE0BB60F921BBE2F933F934F935F9323
S1130F506F937F938F939F93AF93BF93EF93FF937D
S1130F60E0917220F0917320309709F01995FF9168
S1130F70EF91BF91AF919F918F917F916F915F910D
S1130F804F913F912F910F900BBE0F9009BE0F9080
S1130F9008BE0F900FBE0F901F9018951F920F92CE
S1130FA00FB60F92112408B60F9218BE09B60F920D
S1130FB019BE0BB60F921BBE2F933F934F935F93B3
S1130FC06F937F938F939F93AF93BF93EF93FF930D
S1130FD0E0917020F0917120309709F01995FF91FC
S1130FE0EF91BF91AF919F918F917F916F915F919D
S1130FF04F913F912F910F900BBE0F9009BE0F9010
S113100008BE0F900FBE0F901F9018951F920F925D
S11310100FB60F92112408B60F9218BE09B60F929C
S113102019BE0BB60F921BBE2F933F934F935F9342
S11310306F937F938F939F93AF93BF93EF93FF939C
S1131040E0916E20F0916F20309709F01995FF918F
S1131050EF91BF91AF919F918F917F916F915F912C
S11310604F913F912F910F900BBE0F9009BE0F909F
S113107008BE0F900FBE0F901F9018951F920F92ED
S11310800FB60F92112408B60F9218BE09B60F922C
S113109019BE0BB60F921BBE2F933F934F935F93D2
S11310A06F937F938F939F93AF93BF93EF93FF932C
S11310B0E0916C20F0916D20309709F01995FF9123
S11310C0EF91BF91AF919F918F917F916F915F91BC
S11310D04F913F912F910F900BBE0F9009BE0F902F
S11310E008BE0F900FBE0F901F9018951F920F927D
S11310F00FB60F92112408B60F9218BE09B60F92BC
S113110019BE0BB60F921BBE2F933F934F935F9361
S11311106F937F938F939F93AF93BF93EF93FF93BB
S1131120E0916A20F0916B20309709F01995FF91B6
S1131130EF91BF91AF919F918F917F916F915F914B
S11311404F913F912F910F900BBE0F9009BE0F90BE
S113115008BE0F900FBE0F901F9018951F920F920C
S11311600FB60F92112408B60F9218BE09B60F924B
S113117019BE0BB60F921BBE2F933F934F935F93F1
S11311806F937F938F939F93AF93BF93EF93FF934B
S1131190E0916820F0916920309709F01995FF914A
S11311A0EF91BF91AF919F918F917F916F915F91DB
S11311B04F913F912F910F900BBE0F9009BE0F904E
S11311C008BE0F900FBE0F901F9018951F920F929C
S11311D00FB60F92112408B60F9218BE09B60F92DB
S11311E019BE0BB60F921BBE2F933F934F935F9381
S11311F06F937F938F939F93AF93BF93EF93FF93DB
S1131200E0916620F0916720309709F01995FF91DD
S1131210EF91BF91AF919F918F917F916F915F916A
S11312204F913F912F910F900BBE0F9009BE0F90DD
S113123008BE0F900FBE0F901F9018951F920F922B
S11312400FB60F92112408B60F9218BE09B60F926A
S113125019BE0BB60F921BBE2F933F934F935F9310
S11312606F937F938F939F93AF93BF93EF93FF936A
S1131270E0916420F0916520309709F01995FF9171
S1131280EF91BF91AF919F918F917F916F915F91FA
S11312904F913F912F910F900BBE0F9009BE0F906D
S11312A008BE0F900FBE0F901F9018951F920F92BB
S11312B00FB60F92112408B60F9218BE09B60F92FA
S11312C019BE0BB60F921BBE2F933F934F935F93A0
S11312D06F937F938F939F93AF93BF93EF93FF93FA
S11312E0E0916220F0916320309709F01995FF9105
S11312F0EF91BF91AF919F918F917F916F915F918A
S11313004F913F912F910F900BBE0F9009BE0F90FC
S113131008BE0F900FBE0F901F9018951F920F924A
S11313200FB60F92112408B60F9218BE09B60F9289
S113133019BE0BB60F921BBE2F933F934F935F932F
S11313406F937F938F939F93AF93BF93EF93FF9389
S1131350E0916020F0916120309709F01995FF9198
S1131360EF91BF91AF919F918F917F916F915F9119
S11313704F913F912F910F900BBE0F9009BE0F908C
S113138008BE0F900FBE0F901F9018951F920F92DA
S11313900FB60F92112408B60F9218BE09B60F9219
S11313A019BE0BB60F921BBE2F933F934F935F93BF
S11313B06F937F938F939F93AF93BF93EF93FF9319
S11313C0E0915E20F0915F20309709F01995FF912C
S11313D0EF91BF91AF919F918F917F916F915F91A9
S11313E04F913F912F910F900BBE0F9009BE0F901C
S11313F008BE0F900FBE0F901F9018951F920F926A
S11314000FB60F92112408B60F9218BE09B60F92A8
S113141019BE0BB60F921BBE2F933F934F935F934E
S11314206F937F938F939F93AF93BF93EF93FF93A8
S1131430E0915C20F0915D20309709F01995FF91BF
S1131440EF91BF91AF919F918F917F916F915F9138
S11314504F913F912F910F900BBE0F9009BE0F90AB
S113146008BE0F900FBE0F901F9018951F920F92F9
S11314700FB60F92112408B60F9218BE09B60F9238
S113148019BE0BB60F921BBE2F933F934F935F93DE
S11314906F937F938F939F93AF93BF93EF93FF9338
S11314A0E0915A20F0915B20309709F01995FF9153
S11314B0EF91BF91AF919F918F917F916F915F91C8
S11314C04F913F912F910F900BBE0F9009BE0F903B
S11314D008BE0F900FBE0F901F9018951F920F9289
S11314E00FB60F92112408B60F9218BE09B60F92C8
S11314F019BE0BB60F921BBE2F933F934F935F936E
S11315006F937F938F939F93AF93BF93EF93FF93C7
S1131510E0915820F0915920309709F01995FF91E6
S1131520EF91BF91AF919F918F917F916F915F9157
S11315304F913F912F910F900BBE0F9009BE0F90CA
S113154008BE0F900FBE0F901F9018951F920F9218
S11315500FB60F92112408B60F9218BE09B60F9257
S113156019BE0BB60F921BBE2F933F934F935F93FD
S11315706F937F938F939F93AF93BF93EF93FF9357
S1131580E0915620F0915720309709F01995FF917A
S1131590EF91BF91AF919F918F917F916F915F91E7
S11315A04F913F912F910F900BBE0F9009BE0F905A
S11315B008BE0F900FBE0F901F9018951F920F92A8
S11315C00FB60F92112408B60F9218BE09B60F92E7
S11315D019BE0BB60F921BBE2F933F934F935F938D
S11315E06F937F938F939F93AF93BF93EF93FF93E7
S11315F0E0915420F0915520309709F01995FF910E
S1131600EF91BF91AF919F918F917F916F915F9176
S11316104F913F912F910F900BBE0F9009BE0F90E9
S113162008BE0F900FBE0F901F9018951F920F9237
S11316300FB60F92112408B60F9218BE09B60F9276
S113164019BE0BB60F921BBE2F933F934F935F931C
S11316506F937F938F939F93AF93BF93EF93FF9376
S1131660E0915220F0915320309709F01995FF91A1
S1131670EF91BF91AF919F918F917F916F915F9106
S11316804F913F912F910F900BBE0F9009BE0F9079
S113169008BE0F900FBE0F901F9018951F920F92C7
S11316A00FB60F92112408B60F9218BE09B60F9206
S11316B019BE0BB60F921BBE2F933F934F935F93AC
S11316C06F937F938F939F93AF93BF93EF93FF9306
S11316D0E0915020F0915120309709F01995FF9135
S11316E0EF91BF91AF919F918F917F916F915F9196
S11316F04F913F912F910F900BBE0F9009BE0F9009
S113170008BE0F900FBE0F901F9018951F920F9256
S11317100FB60F92112408B60F9218BE09B60F9295
S113172019BE0BB60F921BBE2F933F934F935F933B
S11317306F937F938F939F93AF93BF93EF93FF9395
S1131740E0914E20F0914F20309709F01995FF91C8
S1131750EF91BF91AF919F918F917F916F915F9125
S11317604F913F912F910F900BBE0F9009BE0F9098
S113177008BE0F900FBE0F901F9018951F920F92E6
S11317800FB60F92112408B60F9218BE09B60F9225
S113179019BE0BB60F921BBE2F933F934F935F93CB
S11317A06F937F938F939F93AF93BF93EF93FF9325
S11317B0E0914C20F0914D20309709F01995FF915C
S11317C0EF91BF91AF919F918F917F916F915F91B5
S11317D04F913F912F910F900BBE0F9009BE0F9028
S11317E008BE0F900FBE0F901F9018951F920F9276
S11317F00FB60F92112408B60F9218BE09B60F92B5
S113180019BE0BB60F921BBE2F933F934F935F935A
S11318106F937F938F939F93AF93BF93EF93FF93B4
S1131820E0914A20F0914B20309709F01995FF91EF
S1131830EF91BF91AF919F918F917F916F915F9144
S11318404F913F912F910F900BBE0F9009BE0F90B7
S113185008BE0F900FBE0F901F9018951F920F9205
S11318600FB60F92112408B60F9218BE09B60F9244
S113187019BE0BB60F921BBE2F933F934F935F93EA
S11318806F937F938F939F93AF93BF93EF93FF9344
S1131890E0914820F0914920309709F01995FF9183
S11318A0EF91BF91AF919F918F917F916F915F91D4
S11318B04F913F912F910F900BBE0F9009BE0F9047
S11318C008BE0F900FBE0F901F9018951F920F9295
S11318D00FB60F92112408B60F9218BE09B60F92D4
S11318E019BE0BB60F921BBE2F933F934F935F937A
S11318F06F937F938F939F93AF93BF93EF93FF93D4
S1131900E0914620F0914720309709F01995FF9116
S1131910EF91BF91AF919F918F917F916F915F9163
S11319204F913F912F910F900BBE0F9009BE0F90D6
S113193008BE0F900FBE0F901F9018951F920F9224
S11319400FB60F92112408B60F9218BE09B60F9263
S113195019BE0BB60F921BBE2F933F934F935F9309
S11319606F937F938F939F93AF93BF93EF93FF9363
S1131970E0914420F0914520309709F01995FF91AA
S1131980EF91BF91AF919F918F917F916F915F91F3
S11319904F913F912F910F900BBE0F9009BE0F9066
S11319A008BE0F900FBE0F901F9018951F920F92B4
S11319B00FB60F92112408B60F9218BE09B60F92F3
S11319C019BE0BB60F921BBE2F933F934F935F9399
S11319D06F937F938F939F93AF93BF93EF93FF93F3
S11319E0E0914220F0914320309709F01995FF913E
S11319F0EF91BF91AF919F918F917F916F915F9183
S1131A004F913F912F910F900BBE0F9009BE0F90F5
S1131A1008BE0F900FBE0F901F9018951F920F9243
S1131A200FB60F92112408B60F9218BE09B60F9282
S1131A3019BE0BB60F921BBE2F933F934F935F9328
S1131A406F937F938F939F93AF93BF93EF93FF9382
S1131A50E0914020F0914120309709F01995FF91D1
S1131A60EF91BF91AF919F918F917F916F915F9112
S1131A704F913F912F910F900BBE0F9009BE0F9085
S1131A8008BE0F900FBE0F901F9018951F920F92D3
S1131A900FB60F92112408B60F9218BE09B60F9212
S1131AA019BE0BB60F921BBE2F933F934F935F93B8
S1131AB06F937F938F939F93AF93BF93EF93FF9312
S1131AC0E0913E20F0913F20309709F01995FF9165
S1131AD0EF91BF91AF919F918F917F916F915F91A2
S1131AE04F913F912F910F900BBE0F9009BE0F9015
S1131AF008BE0F900FBE0F901F9018951F920F9263
S1131B000FB60F92112408B60F9218BE09B60F92A1
S1131B1019BE0BB60F921BBE2F933F934F935F9347
S1131B206F937F938F939F93AF93BF93EF93FF93A1
S1131B30E0913C20F0913D20309709F01995FF91F8
S1131B40EF91BF91AF919F918F917F916F915F9131
S1131B504F913F912F910F900BBE0F9009BE0F90A4
S1131B6008BE0F900FBE0F901F9018951F920F92F2
S1131B700FB60F92112408B60F9218BE09B60F9231
S1131B8019BE0BB60F921BBE2F933F934F935F93D7
S1131B906F937F938F939F93AF93BF93EF93FF9331
S1131BA0E0913A20F0913B20309709F01995FF918C
S1131BB0EF91BF91AF919F918F917F916F915F91C1
S1131BC04F913F912F910F900BBE0F9009BE0F9034
S1131BD008BE0F900FBE0F901F9018951F920F9282
S1131BE00FB60F92112408B60F9218BE09B60F92C1
S1131BF019BE0BB60F921BBE2F933F934F935F9367
S1131C006F937F938F939F93AF93BF93EF93FF93C0
S1131C10E0913820F0913920309709F01995FF911F
S1131C20EF91BF91AF919F918F917F916F915F9150
S1131C304F913F912F910F900BBE0F9009BE0F90C3
S1131C4008BE0F900FBE0F901F9018951F920F9211
S1131C500FB60F92112408B60F9218BE09B60F9250
S1131C6019BE0BB60F921BBE2F933F934F935F93F6
S1131C706F937F938F939F93AF93BF93EF93FF9350
S1131C80E0913620F0913720309709F01995FF91B3
S1131C90EF91BF91AF919F918F917F916F915F91E0
S1131CA04F913F912F910F900BBE0F9009BE0F9053
S1131CB008BE0F900FBE0F901F9018951F920F92A1
S1131CC00FB60F92112408B60F9218BE09B60F92E0
S1131CD019BE0BB60F921BBE2F933F934F935F9386
S1131CE06F937F938F939F93AF93BF93EF93FF93E0
S1131CF0E0913420F0913520309709F01995FF9147
S1131D00EF91BF91AF919F918F917F916F915F916F
S1131D104F913F912F910F900BBE0F9009BE0F90E2
S1131D2008BE0F900FBE0F901F9018951F920F9230
S1131D300FB60F92112408B60F9218BE09B60F926F
S1131D4019BE0BB60F921BBE2F933F934F935F9315
S1131D506F937F938F939F93AF93BF93EF93FF936F
S1131D60E0913220F0913320309709F01995FF91DA
S1131D70EF91BF91AF919F918F917F916F915F91FF
S1131D804F913F912F910F900BBE0F9009BE0F9072
S1131D9008BE0F900FBE0F901F9018951F920F92C0
S1131DA00FB60F92112408B60F9218BE09B60F92FF
S1131DB019BE0BB60F921BBE2F933F934F935F93A5
S1131DC06F937F938F939F93AF93BF93EF93FF93FF
S1131DD0E0913020F0913120309709F01995FF916E
S1131DE0EF91BF91AF919F918F917F916F915F918F
S1131DF04F913F912F910F900BBE0F9009BE0F9002
S1131E0008BE0F900FBE0F901F9018951F920F924F
S1131E100FB60F92112408B60F9218BE09B60F928E
S1131E2019BE0BB60F921BBE2F933F934F935F9334
S1131E306F937F938F939F93AF93BF93EF93FF938E
S1131E40E0912E20F0912F20309709F01995FF9101
S1131E50EF91BF91AF919F918F917F916F915F911E
S1131E604F913F912F910F900BBE0F9009BE0F9091
S1131E7008BE0F900FBE0F901F9018951F920F92DF
S1131E800FB60F92112408B60F9218BE09B60F921E
S1131E9019BE0BB60F921BBE2F933F934F935F93C4
S1131EA06F937F938F939F93AF93BF93EF93FF931E
S1131EB0E0912C20F0912D20309709F01995FF9195
S1131EC0EF91BF91AF919F918F917F916F915F91AE
S1131ED04F913F912F910F900BBE0F9009BE0F9021
S1131EE008BE0F900FBE0F901F9018951F920F926F
S1131EF00FB60F92112408B60F9218BE09B60F92AE
S1131F0019BE0BB60F921BBE2F933F934F935F9353
S1131F106F937F938F939F93AF93BF93EF93FF93AD
S1131F20E0912A20F0912B20309709F01995FF9128
S1131F30EF91BF91AF919F918F917F916F915F913D
S1131F404F913F912F910F900BBE0F9009BE0F90B0
S1131F5008BE0F900FBE0F901F9018951F920F92FE
S1131F600FB60F92112408B60F9218BE09B60F923D
S1131F7019BE0BB60F921BBE2F933F934F935F93E3
S1131F806F937F938F939F93AF93BF93EF93FF933D
S1131F90E0912820F0912920309709F01995FF91BC
S1131FA0EF91BF91AF919F918F917F916F915F91CD
S1131FB04F913F912F910F900BBE0F9009BE0F9040
S1131FC008BE0F900FBE0F901F9018951F920F928E
S1131FD00FB60F92112408B60F9218BE09B60F92CD
S1131FE019BE0BB60F921BBE2F933F934F935F9373
S1131FF06F937F938F939F93AF93BF93EF93FF93CD
S1132000E0912620F0912720309709F01995FF914F
S1132010EF91BF91AF919F918F917F916F915F915C
S11320204F913F912F910F900BBE0F9009BE0F90CF
S113203008BE0F900FBE0F901F9018951BBEFC0199
S113204028ED24BF60830895CF93DF93FC0120E043
S113205030E0C62FD0E0DE01022E02C0B595A79570
S11320600A94E2F7A0FD508B2F5F3F4F3196283042
S1132070310589F740FF0AC041FF03C0FC016583B5
S113208002C0FC016683FC01618302C0FC0162831F
S1132090DF91CF91089543E050E061E080E896E05D
S11320A0D3DF43E050E062E080E896E0CDDF43E038
S11320B050E064E080E896E0C7DF43E050E068E089
S11320C080E896E0C1DF43E050E060E180E896E01C
S11320D0BBDF43E050E060E280E896E0B5DF43E038
S11320E050E060E480E896E0AFDF43E050E060E871
S11320F080E896E0A9DF40E058E161E080E696E000
S1132100A3DF40E058E162E080E696E09DDF40E036
S113211058E164E080E696E097DF40E058E168E04B
S113212080E696E091DF40E058E160E180E696E0E9
S11321308BDF40E058E160E280E696E085DF40E036
S113214058E161E080EE97E07FDF40E058E162E033
S113215080EE97E079DF43E050E060E880E496E0C9
S113216073DF43E050E060E280E496E06DDF40E03E
S113217050E060E480E496E067DF43E050E068E02C
S113218080EC97E061DF40E050E061E080E096E0C1
S11321905BDF40E050E064E080E096E055DF40E043
S11321A050E062E080E296E04FDF40E057E062E01A
S11321B080E296E049DF40E057E061E080E296E0AB
S11321C043DF41E050E068E080E296E03DDF40E03C
S11321D057E064E080E296E037DF43E050E068E0F7
S11321E080EC97E031DF43E050E068E080E496E083
S11321F02BDF40E050E064E080E496E025DF43E03C
S113220050E068E080E696E01FDF40E050E064E0E4
S113221080E696E019CF0895CF93DF93EB010E94F7
S113222042018883DF91CF9108950C943A01089577
S1132230CF93DF93CDB7DEB72797CDBFDEBFE0E402
S1132240F6E088E08183858380EA98E080937E20AD
S113225090937F2085E191E180937C2090937D2071
S11322608CE091E18093762090937720E6E0F0E291
S113227084818D8385818E8386818F838081918102
S1132280A281B38189839A83AB83BC8360E183E0B9
S11322900E94AB06BE016F5F7F4F80EA98E00E9408
S11322A05B0261E271E081E796E048D22796CDBFF8
S11322B0DEBFDF91CF9108956150710981099109C1
S11322C0D9F708950E948306E6DE0E94BC03B0DFBE
S11322D000E816E0FF24FA94C12CD12C8F2D8295AE
S11322E0807FF8018483C6010E94CC03CAE0D0E059
S11322F0F80184818058848365E571E681E590E086
S1132300DBDF2197A9F7FFEFCF1ADF0AFA948BEFEF
S1132310F812E4CF0E9483046AEA76EE86E991E03B
S1132320CBDFD8CF5058BB27AA270ED048C139D10C
S113233030F03ED120F031F49F3F11F41EF42EC151
S11323400EF4E095E7FB24C1E92F4AD180F3BA17D4
S1132350620773078407950718F071F49EF562C14C
S11323600EF4E0950B2EBA2FA02D0B01B9019001AC
S11323700C01CA01A0011124FF27591B99F0593FF0
S113238050F4503E68F11A16F040A22F232F342F38
S11323904427585FF3CF469537952795A795F04086
S11323A05395C9F77EF41F16BA0B620B730B840B9B
S11323B0BAF09150A1F0FF0FBB1F661F771F881F53
S11323C0C2F70EC0BA0F621F731F841F48F48795AB
S11323D077956795B795F7959E3F08F0B3CF93959A
S11323E0880F08F09927EE0F9795879508950CD0DC
S11323F0E6C0DED040F0D5D030F021F45F3F19F0D4
S1132400C7C0511110C1CAC0EBD098F39923C9F3C6
S11324105523B1F3951B550BBB27AA2762177307E6
S1132420840738F09F5F5F4F220F331F441FAA1F9A
S1132430A9F333D00E2E3AF0E0E830D0915050405A
S1132440E695001CCAF729D0FE2F27D0660F771F08
S1132450881FBB1F261737074807AB07B0E809F0EA
S1132460BB0B802DBF01FF2793585F4F2AF09E3F7F
S1132470510568F08DC0D7C05F3FECF3983EDCF3A4
S1132480869577956795B795F7959F5FC9F7880FF8
S1132490911D9695879597F90895E1E0660F771F4A
S11324A0881FBB1F621773078407BA0720F0621BDB
S11324B0730B840BBA0BEE1F88F7E095089598D040
S11324C088F09F5790F0B92F9927B751A0F0D1F019
S11324D0660F771F881F991F1AF0BA95C9F712C0A3
S11324E0B13081F09FD0B1E008959CC0672F782F60
S11324F08827B85F39F0B93FCCF38695779567950F
S1132500B395D9F73EF490958095709561957F4F7A
S11325108F4F9F4F0895E89409C097FB3EF4909520
S11325208095709561957F4F8F4F9F4F9923A9F0A8
S1132530F92F96E9BB279395F69587957795679537
S1132540B795F111F8CFFAF4BB0F11F460FF1BC07B
S11325506F5F7F4F8F4F9F4F16C0882311F096E90E
S113256011C0772321F09EE8872F762F05C06623BC
S113257071F096E8862F70E060E02AF09A95660F75
S1132580771F881FDAF7880F9695879597F908952E
S113259097F99F6780E870E060E008959FEF80EC12
S11325A0089500240A9416161706180609060895B5
S11325B000240A9412161306140605060895092E1B
S11325C00394000C11F4882352F0BB0F40F4BF2B8A
S11325D011F460FF04C06F5F7F4F8F4F9F4F0895CA
S11325E057FD9058440F551F59F05F3F71F04795C0
S11325F0880F97FB991F61F09F3F79F087950895A5
S1132600121613061406551FF2CF4695F1DF08C0C3
S1132610161617061806991FF1CF869571056105E0
S113262008940895E894BB2766277727CB0197F988
S113263008950BD0C4CFB5DF28F0BADF18F0952386
S113264009F0A6CFABCF1124EECFCADFA0F3959F3C
S1132650D1F3950F50E0551F629FF001729FBB2785
S1132660F00DB11D639FAA27F00DB11DAA1F649F31
S11326706627B00DA11D661F829F2227B00DA11DE4
S1132680621F739FB00DA11D621F839FA00D611D6A
S1132690221F749F3327A00D611D231F849F600D8B
S11326A0211D822F762F6A2F11249F5750408AF0C4
S11326B0E1F088234AF0EE0FFF1FBB1F661F771F50
S11326C0881F91505040A9F79E3F510570F060CF8C
S11326D0AACF5F3FECF3983EDCF386957795679538
S11326E0B795F795E7959F5FC1F7FE2B880F911D6E
S11326F09695879597F90895A1E21A2EAA1BBB1BFC
S1132700FD010DC0AA1FBB1FEE1FFF1FA217B307B9
S1132710E407F50720F0A21BB30BE40BF50B661FCF
S1132720771F881F991F1A9469F760957095809593
S113273090959B01AC01BD01CF0108950F931F93A8
S1132740CF93DF93009731F46115710519F480E09C
S113275090E039C08B01EC016EE070E081E090E024
S113276037D0FC01892B99F380E883830115110587
S113277071F00287138781E8838380918820909188
S11327808920892B21F4E0938820F09389202097D5
S1132790C9F0C087D18783818260838380918A2036
S11327A090918B20892B71F4E0938A20F0938B20F5
S11327B080918C2090918D20892B21F4E0938C20A2
S11327C0F0938D20CF01DF91CF911F910F91089548
S11327D00F931F93CF93DF93869F8001879F100DE4
S11327E0969F100D1124C8010DD0EC01009721F023
S11327F0A80160E070E027D1CE01DF91CF911F9155
S11328000F9108950F931F93CF93DF938230910517
S113281010F482E090E0E0919020F091912020E08B
S113282030E0A0E0B0E0309719F14081518102819D
S1132830138148175907C8F08417950769F410974E
S113284031F012960C93129713961C9327C00093A1
S113285090201093912022C02115310519F04217C0
S1132860530718F49A01BD01EF01DF01F801DBCF32
S113287021153105F9F0281B390B2430310580F47A
S11328808A819B816115710521F0FB018283938309
S113289004C08093902090939120FE01329644C00E
S11328A0FE01E20FF31F8193919322503109288393
S11328B039833AC020918E2030918F20232B41F40C
S11328C0209102203091032020938E2030938F207A
S11328D020910020309101202115310541F42DB7BC
S11328E03EB74091042050910520241B350BE09104
S11328F08E20F0918F20E217F307A0F42E1B3F0BDC
S11329002817390778F0AC014E5F5F4F241735075D
S113291048F04E0F5F1F40938E2050938F20819379
S1132920919302C0E0E0F0E0CF01DF91CF911F91DD
S11329300F910895CF93DF93009709F481C0FC01B0
S1132940329712821382A0919020B0919120109717
S113295081F420813181820F931F20918E20309148
S11329608F202817390751F5E0938E20F0938F209C
S113297067C0ED0120E030E0CE17DF0740F44A8164
S11329805B819E0141155105F1F0EA01F5CFC28347
S1132990D38340815181840F951FC817D90759F4F7
S11329A088819981840F951F0296808391838A81FF
S11329B09B81828393832115310529F4E093902030
S11329C0F09391203DC0E901EA83FB834991599139
S11329D0C40FD51FEC17FD0761F480819181840F2A
S11329E0951F0296E90188839983828193818A8362
S11329F09B83E0E0F0E012968D919C9113970097F1
S1132A0019F0FD01DC01F7CF8D919C9111979D0187
S1132A102E5F3F4F820F931F20918E2030918F2085
S1132A202817390769F4309729F4109290201092EE
S1132A30912002C012821382A0938E20B0938F2023
S1132A40DF91CF910895DC0101C06D934150504056
S10B2A50E0F70895F894FFCFAC
S1132A5800009220200080250000030001000000EF
S1132A683F0000A040000020410000803E05000A0D
S1092A78000A000A000040
S9030000FC
